{
  "_format": "hh-sol-artifact-1",
  "contractName": "CollectionFactory",
  "sourceName": "contracts/CollectionFactory.sol",
  "abi": [
    {
      "anonymous": false,
      "inputs": [
        {
          "indexed": false,
          "internalType": "address",
          "name": "_collectionAddress",
          "type": "address"
        },
        {
          "indexed": false,
          "internalType": "address",
          "name": "_owner",
          "type": "address"
        },
        {
          "indexed": false,
          "internalType": "string",
          "name": "_artistName",
          "type": "string"
        },
        {
          "indexed": false,
          "internalType": "string",
          "name": "_artistSymbol",
          "type": "string"
        }
      ],
      "name": "collectionCreated",
      "type": "event"
    },
    {
      "inputs": [
        {
          "internalType": "uint256",
          "name": "",
          "type": "uint256"
        }
      ],
      "name": "collectionsCreated",
      "outputs": [
        {
          "internalType": "address",
          "name": "collectionAddress",
          "type": "address"
        },
        {
          "internalType": "address",
          "name": "owner",
          "type": "address"
        },
        {
          "internalType": "string",
          "name": "name",
          "type": "string"
        },
        {
          "internalType": "string",
          "name": "symbol",
          "type": "string"
        }
      ],
      "stateMutability": "view",
      "type": "function"
    },
    {
      "inputs": [
        {
          "internalType": "string",
          "name": "_artistName",
          "type": "string"
        },
        {
          "internalType": "string",
          "name": "_artistSymbol",
          "type": "string"
        }
      ],
      "name": "createNFTCollection",
      "outputs": [
        {
          "internalType": "address",
          "name": "collectionAddress",
          "type": "address"
        }
      ],
      "stateMutability": "nonpayable",
      "type": "function"
    },
    {
      "inputs": [
        {
          "internalType": "uint256",
          "name": "_idCollection",
          "type": "uint256"
        }
      ],
      "name": "getOneCollection",
      "outputs": [
        {
          "components": [
            {
              "internalType": "address",
              "name": "collectionAddress",
              "type": "address"
            },
            {
              "internalType": "address",
              "name": "owner",
              "type": "address"
            },
            {
              "internalType": "string",
              "name": "name",
              "type": "string"
            },
            {
              "internalType": "string",
              "name": "symbol",
              "type": "string"
            }
          ],
          "internalType": "struct CollectionFactory.ArtistCollection",
          "name": "",
          "type": "tuple"
        }
      ],
      "stateMutability": "view",
      "type": "function"
    }
  ],
  "bytecode": "0x608060405234801561001057600080fd5b506129a2806100206000396000f3fe608060405234801561001057600080fd5b50600436106100415760003560e01c806366223a181461004657806378fcdf0e14610076578063805388fd14610096575b600080fd5b610059610054366004610730565b6100b9565b6040516001600160a01b0390911681526020015b60405180910390f35b610089610084366004610794565b6102ed565b60405161006d9190610809565b6100a96100a4366004610794565b61048d565b60405161006d949392919061086b565b600080604051806020016100cc906105e7565b6020820181038252601f19601f8201166040525090506000846040516020016100f591906108b4565b604051602081830303815290604052805190602001209050808251602084016000f59250823b61012457600080fd5b6040516303bf912560e11b81526001600160a01b0384169063077f224a90610154908890889033906004016108d0565b600060405180830381600087803b15801561016e57600080fd5b505af1158015610182573d6000803e3d6000fd5b505050506101af604080516080810182526000808252602082015260609181018290528181019190915290565b6001600160a01b038085168252604082018781523360208085019182526060850189905260008054600181018255908052855160049091027f290decd9548b62a8d60345a988386fc84ba6bc95484008f6362f93160ef3e563810180549287166001600160a01b031993841617815593517f290decd9548b62a8d60345a988386fc84ba6bc95484008f6362f93160ef3e56482018054919097169216919091179094559151805185949293610288937f290decd9548b62a8d60345a988386fc84ba6bc95484008f6362f93160ef3e565019201906105f4565b50606082015180516102a49160038401916020909101906105f4565b5050507f7dd8f042c640a27c22b9167d6bde1eeacff931e669606e63476064e8fb27a1f2843388886040516102dc949392919061086b565b60405180910390a150505092915050565b6040805160808101825260008082526020820152606091810182905281810191909152600082815481106103235761032361090e565b600091825260209182902060408051608081018252600490930290910180546001600160a01b039081168452600182015416938301939093526002830180549293929184019161037290610924565b80601f016020809104026020016040519081016040528092919081815260200182805461039e90610924565b80156103eb5780601f106103c0576101008083540402835291602001916103eb565b820191906000526020600020905b8154815290600101906020018083116103ce57829003601f168201915b5050505050815260200160038201805461040490610924565b80601f016020809104026020016040519081016040528092919081815260200182805461043090610924565b801561047d5780601f106104525761010080835404028352916020019161047d565b820191906000526020600020905b81548152906001019060200180831161046057829003601f168201915b5050505050815250509050919050565b6000818154811061049d57600080fd5b60009182526020909120600490910201805460018201546002830180546001600160a01b0393841695509290911692916104d690610924565b80601f016020809104026020016040519081016040528092919081815260200182805461050290610924565b801561054f5780601f106105245761010080835404028352916020019161054f565b820191906000526020600020905b81548152906001019060200180831161053257829003601f168201915b50505050509080600301805461056490610924565b80601f016020809104026020016040519081016040528092919081815260200182805461059090610924565b80156105dd5780601f106105b2576101008083540402835291602001916105dd565b820191906000526020600020905b8154815290600101906020018083116105c057829003601f168201915b5050505050905084565b61200e8061095f83390190565b82805461060090610924565b90600052602060002090601f0160209004810192826106225760008555610668565b82601f1061063b57805160ff1916838001178555610668565b82800160010185558215610668579182015b8281111561066857825182559160200191906001019061064d565b50610674929150610678565b5090565b5b808211156106745760008155600101610679565b634e487b7160e01b600052604160045260246000fd5b600082601f8301126106b457600080fd5b813567ffffffffffffffff808211156106cf576106cf61068d565b604051601f8301601f19908116603f011681019082821181831017156106f7576106f761068d565b8160405283815286602085880101111561071057600080fd5b836020870160208301376000602085830101528094505050505092915050565b6000806040838503121561074357600080fd5b823567ffffffffffffffff8082111561075b57600080fd5b610767868387016106a3565b9350602085013591508082111561077d57600080fd5b5061078a858286016106a3565b9150509250929050565b6000602082840312156107a657600080fd5b5035919050565b60005b838110156107c85781810151838201526020016107b0565b838111156107d7576000848401525b50505050565b600081518084526107f58160208601602086016107ad565b601f01601f19169290920160200192915050565b60208152600060018060a01b038084511660208401528060208501511660408401525060408301516080606084015261084560a08401826107dd565b90506060840151601f1984830301608085015261086282826107dd565b95945050505050565b6001600160a01b03858116825284166020820152608060408201819052600090610897908301856107dd565b82810360608401526108a981856107dd565b979650505050505050565b600082516108c68184602087016107ad565b9190910192915050565b6060815260006108e360608301866107dd565b82810360208401526108f581866107dd565b91505060018060a01b0383166040830152949350505050565b634e487b7160e01b600052603260045260246000fd5b600181811c9082168061093857607f821691505b60208210810361095857634e487b7160e01b600052602260045260246000fd5b5091905056fe608060405234801561001057600080fd5b50611fee806100206000396000f3fe6080604052600436106101095760003560e01c80636352211e11610095578063a22cb46511610064578063a22cb465146102cc578063b88d4fde146102ec578063be9af5361461030c578063c87b56dd1461031f578063e985e9c51461033f57600080fd5b80636352211e1461025657806370a082311461027657806372b3b620146102a457806395d89b41146102b757600080fd5b8063095ea7b3116100dc578063095ea7b3146101bf5780630f08efe0146101df578063202e37401461020157806323b872dd1461021657806342842e0e1461023657600080fd5b806301ffc9a71461010e57806306fdde0314610143578063077f224a14610165578063081812fc14610187575b600080fd5b34801561011a57600080fd5b5061012e61012936600461194e565b610388565b60405190151581526020015b60405180910390f35b34801561014f57600080fd5b506101586103da565b60405161013a91906119c3565b34801561017157600080fd5b50610185610180366004611a9e565b61046c565b005b34801561019357600080fd5b506101a76101a2366004611b12565b6105a2565b6040516001600160a01b03909116815260200161013a565b3480156101cb57600080fd5b506101856101da366004611b2b565b6105c9565b3480156101eb57600080fd5b506101f46106de565b60405161013a9190611b55565b34801561020d57600080fd5b506101f4610875565b34801561022257600080fd5b50610185610231366004611bd1565b610a49565b34801561024257600080fd5b50610185610251366004611bd1565b610a7a565b34801561026257600080fd5b506101a7610271366004611b12565b610a95565b34801561028257600080fd5b50610296610291366004611c0d565b610af5565b60405190815260200161013a565b6102966102b2366004611c28565b610b7b565b3480156102c357600080fd5b50610158610c27565b3480156102d857600080fd5b506101856102e7366004611c6d565b610c36565b3480156102f857600080fd5b50610185610307366004611ca9565b610c45565b61018561031a366004611b12565b610c77565b34801561032b57600080fd5b5061015861033a366004611b12565b610d9f565b34801561034b57600080fd5b5061012e61035a366004611d25565b6001600160a01b039182166000908152606a6020908152604080832093909416825291909152205460ff1690565b60006001600160e01b031982166380ac58cd60e01b14806103b957506001600160e01b03198216635b5e139f60e01b145b806103d457506301ffc9a760e01b6001600160e01b03198316145b92915050565b6060606580546103e990611d58565b80601f016020809104026020016040519081016040528092919081815260200182805461041590611d58565b80156104625780601f1061043757610100808354040283529160200191610462565b820191906000526020600020905b81548152906001019060200180831161044557829003601f168201915b5050505050905090565b600054610100900460ff161580801561048c5750600054600160ff909116105b806104a65750303b1580156104a6575060005460ff166001145b61050e5760405162461bcd60e51b815260206004820152602e60248201527f496e697469616c697a61626c653a20636f6e747261637420697320616c72656160448201526d191e481a5b9a5d1a585b1a5e995960921b60648201526084015b60405180910390fd5b6000805460ff191660011790558015610531576000805461ff0019166101001790555b61053b8484610eaf565b60cc80546001600160a01b0319166001600160a01b038416179055801561059c576000805461ff0019169055604051600181527f7f26b83ff96e1f2b6a682f133852f6798a09c465da95921460cefb38474024989060200160405180910390a15b50505050565b60006105ad82610ee0565b506000908152606960205260409020546001600160a01b031690565b60006105d482610a95565b9050806001600160a01b0316836001600160a01b0316036106415760405162461bcd60e51b815260206004820152602160248201527f4552433732313a20617070726f76616c20746f2063757272656e74206f776e656044820152603960f91b6064820152608401610505565b336001600160a01b038216148061065d575061065d813361035a565b6106cf5760405162461bcd60e51b815260206004820152603e60248201527f4552433732313a20617070726f76652063616c6c6572206973206e6f7420746f60448201527f6b656e206f776e6572206e6f7220617070726f76656420666f7220616c6c00006064820152608401610505565b6106d98383610f42565b505050565b606060006106eb60c95490565b905060006106f860ca5490565b60c9546107059190611da8565b90506000808267ffffffffffffffff811115610723576107236119d6565b60405190808252806020026020018201604052801561077c57816020015b6040805160a0810182526000808252602080830182905292820181905260608201819052608082015282526000199092019101816107415790505b50905060005b8481101561086c573060cd600061079a846001611dbf565b81526020810191909152604001600020600201546001600160a01b03160361085a5760006107c9826001611dbf565b600081815260cd6020908152604091829020825160a0810184528154815260018201546001600160a01b039081169382019390935260028201549092169282019290925260038201546060820152600482015460ff16151560808201528551929350909185908790811061083f5761083f611dd7565b6020908102919091010152610855600186611dbf565b945050505b8061086481611ded565b915050610782565b50949350505050565b6060600061088260c95490565b905060008060005b838110156108e4573360cd60006108a2846001611dbf565b81526020810191909152604001600020600201546001600160a01b0316036108d2576108cf600184611dbf565b92505b806108dc81611ded565b91505061088a565b5060008267ffffffffffffffff811115610900576109006119d6565b60405190808252806020026020018201604052801561095957816020015b6040805160a08101825260008082526020808301829052928201819052606082018190526080820152825260001990920191018161091e5790505b50905060005b8481101561086c573360cd6000610977846001611dbf565b81526020810191909152604001600020600201546001600160a01b031603610a375760006109a6826001611dbf565b600081815260cd6020908152604091829020825160a0810184528154815260018201546001600160a01b039081169382019390935260028201549092169282019290925260038201546060820152600482015460ff161515608082015285519293509091859087908110610a1c57610a1c611dd7565b6020908102919091010152610a32600186611dbf565b945050505b80610a4181611ded565b91505061095f565b610a533382610fb0565b610a6f5760405162461bcd60e51b815260040161050590611e06565b6106d983838361102e565b6106d983838360405180602001604052806000815250610c45565b6000818152606760205260408120546001600160a01b0316806103d45760405162461bcd60e51b8152602060048201526018602482015277115490cdcc8c4e881a5b9d985b1a59081d1bdad95b88125160421b6044820152606401610505565b60006001600160a01b038216610b5f5760405162461bcd60e51b815260206004820152602960248201527f4552433732313a2061646472657373207a65726f206973206e6f7420612076616044820152683634b21037bbb732b960b91b6064820152608401610505565b506001600160a01b031660009081526068602052604090205490565b60cc546000906001600160a01b03163314610be75760405162461bcd60e51b815260206004820152602660248201527f596f75277265206e6f7420746865206f776e6572206f662074686520636f6c6c60448201526532b1ba34b7b760d11b6064820152608401610505565b610bf560c980546001019055565b6000610c0060c95490565b9050610c0c33826111ca565b610c16818561130c565b610c2081846113a6565b9392505050565b6060606680546103e990611d58565b610c413383836114db565b5050565b610c4f3383610fb0565b610c6b5760405162461bcd60e51b815260040161050590611e06565b61059c848484846115a9565b600081815260cd6020526040902060038101546001909101546001600160a01b0316348214610d10576040805162461bcd60e51b81526020600482015260248101919091527f506c65617365207375626d6974207468652061736b696e67207072696365206960448201527f6e206f7264657220746f20636f6d706c657465207468652070757263686173656064820152608401610505565b600083815260cd602052604090206002810180546001600160a01b0319908116331790915560048201805460ff1916600190811790915590910180549091169055610d5f60ca80546001019055565b610d6a30338561102e565b6040516001600160a01b038216903480156108fc02916000818181858888f1935050505015801561059c573d6000803e3d6000fd5b6060610daa82610ee0565b60008281526097602052604081208054610dc390611d58565b80601f0160208091040260200160405190810160405280929190818152602001828054610def90611d58565b8015610e3c5780601f10610e1157610100808354040283529160200191610e3c565b820191906000526020600020905b815481529060010190602001808311610e1f57829003601f168201915b505050505090506000610e5a60408051602081019091526000815290565b90508051600003610e6c575092915050565b815115610e9e578082604051602001610e86929190611e54565b60405160208183030381529060405292505050919050565b610ea7846115dc565b949350505050565b600054610100900460ff16610ed65760405162461bcd60e51b815260040161050590611e83565b610c41828261164f565b6000818152606760205260409020546001600160a01b0316610f3f5760405162461bcd60e51b8152602060048201526018602482015277115490cdcc8c4e881a5b9d985b1a59081d1bdad95b88125160421b6044820152606401610505565b50565b600081815260696020526040902080546001600160a01b0319166001600160a01b0384169081179091558190610f7782610a95565b6001600160a01b03167f8c5be1e5ebec7d5bd14f71427d1e84f3dd0314c0f7b2291e5b200ac8c7c3b92560405160405180910390a45050565b600080610fbc83610a95565b9050806001600160a01b0316846001600160a01b0316148061100357506001600160a01b038082166000908152606a602090815260408083209388168352929052205460ff165b80610ea75750836001600160a01b031661101c846105a2565b6001600160a01b031614949350505050565b826001600160a01b031661104182610a95565b6001600160a01b0316146110a55760405162461bcd60e51b815260206004820152602560248201527f4552433732313a207472616e736665722066726f6d20696e636f72726563742060448201526437bbb732b960d91b6064820152608401610505565b6001600160a01b0382166111075760405162461bcd60e51b8152602060048201526024808201527f4552433732313a207472616e7366657220746f20746865207a65726f206164646044820152637265737360e01b6064820152608401610505565b611112600082610f42565b6001600160a01b038316600090815260686020526040812080546001929061113b908490611da8565b90915550506001600160a01b0382166000908152606860205260408120805460019290611169908490611dbf565b909155505060008181526067602052604080822080546001600160a01b0319166001600160a01b0386811691821790925591518493918716917fddf252ad1be2c89b69c2b068fc378daa952ba7f163c4a11628f55a4df523b3ef91a4505050565b6001600160a01b0382166112205760405162461bcd60e51b815260206004820181905260248201527f4552433732313a206d696e7420746f20746865207a65726f20616464726573736044820152606401610505565b6000818152606760205260409020546001600160a01b0316156112855760405162461bcd60e51b815260206004820152601c60248201527f4552433732313a20746f6b656e20616c7265616479206d696e746564000000006044820152606401610505565b6001600160a01b03821660009081526068602052604081208054600192906112ae908490611dbf565b909155505060008181526067602052604080822080546001600160a01b0319166001600160a01b03861690811790915590518392907fddf252ad1be2c89b69c2b068fc378daa952ba7f163c4a11628f55a4df523b3ef908290a45050565b6000828152606760205260409020546001600160a01b03166113875760405162461bcd60e51b815260206004820152602e60248201527f45524337323155524953746f726167653a2055524920736574206f66206e6f6e60448201526d32bc34b9ba32b73a103a37b5b2b760911b6064820152608401610505565b600082815260976020908152604090912082516106d99284019061189f565b600081116113f65760405162461bcd60e51b815260206004820152601c60248201527f5072696365206d757374206265206174206c65617374203120776569000000006044820152606401610505565b6040805160a08101825283815233602080830182815230848601818152606086018881526000608088018181528b825260cd909652979097209551865591516001860180546001600160a01b03199081166001600160a01b0393841617909155925160028701805490941691161790915593516003840155516004909201805460ff19169215159290921790915561148e918461102e565b604080513381523060208201529081018290526000606082015282907fb640004f1d14576d0c209e240cad0410e0d8c0c33a09375861fbadae2588a98d9060800160405180910390a25050565b816001600160a01b0316836001600160a01b03160361153c5760405162461bcd60e51b815260206004820152601960248201527f4552433732313a20617070726f766520746f2063616c6c6572000000000000006044820152606401610505565b6001600160a01b038381166000818152606a6020908152604080832094871680845294825291829020805460ff191686151590811790915591519182527f17307eab39ab6107e8899845ad3d59bd9653f200f220920489ca2b5937696c31910160405180910390a3505050565b6115b484848461102e565b6115c08484848461169d565b61059c5760405162461bcd60e51b815260040161050590611ece565b60606115e782610ee0565b60006115fe60408051602081019091526000815290565b9050600081511161161e5760405180602001604052806000815250610c20565b806116288461179e565b604051602001611639929190611e54565b6040516020818303038152906040529392505050565b600054610100900460ff166116765760405162461bcd60e51b815260040161050590611e83565b815161168990606590602085019061189f565b5080516106d990606690602084019061189f565b60006001600160a01b0384163b1561179357604051630a85bd0160e11b81526001600160a01b0385169063150b7a02906116e1903390899088908890600401611f20565b6020604051808303816000875af192505050801561171c575060408051601f3d908101601f1916820190925261171991810190611f5d565b60015b611779573d80801561174a576040519150601f19603f3d011682016040523d82523d6000602084013e61174f565b606091505b5080516000036117715760405162461bcd60e51b815260040161050590611ece565b805181602001fd5b6001600160e01b031916630a85bd0160e11b149050610ea7565b506001949350505050565b6060816000036117c55750506040805180820190915260018152600360fc1b602082015290565b8160005b81156117ef57806117d981611ded565b91506117e89050600a83611f90565b91506117c9565b60008167ffffffffffffffff81111561180a5761180a6119d6565b6040519080825280601f01601f191660200182016040528015611834576020820181803683370190505b5090505b8415610ea757611849600183611da8565b9150611856600a86611fa4565b611861906030611dbf565b60f81b81838151811061187657611876611dd7565b60200101906001600160f81b031916908160001a905350611898600a86611f90565b9450611838565b8280546118ab90611d58565b90600052602060002090601f0160209004810192826118cd5760008555611913565b82601f106118e657805160ff1916838001178555611913565b82800160010185558215611913579182015b828111156119135782518255916020019190600101906118f8565b5061191f929150611923565b5090565b5b8082111561191f5760008155600101611924565b6001600160e01b031981168114610f3f57600080fd5b60006020828403121561196057600080fd5b8135610c2081611938565b60005b8381101561198657818101518382015260200161196e565b8381111561059c5750506000910152565b600081518084526119af81602086016020860161196b565b601f01601f19169290920160200192915050565b602081526000610c206020830184611997565b634e487b7160e01b600052604160045260246000fd5b600067ffffffffffffffff80841115611a0757611a076119d6565b604051601f8501601f19908116603f01168101908282118183101715611a2f57611a2f6119d6565b81604052809350858152868686011115611a4857600080fd5b858560208301376000602087830101525050509392505050565b600082601f830112611a7357600080fd5b610c20838335602085016119ec565b80356001600160a01b0381168114611a9957600080fd5b919050565b600080600060608486031215611ab357600080fd5b833567ffffffffffffffff80821115611acb57600080fd5b611ad787838801611a62565b94506020860135915080821115611aed57600080fd5b50611afa86828701611a62565b925050611b0960408501611a82565b90509250925092565b600060208284031215611b2457600080fd5b5035919050565b60008060408385031215611b3e57600080fd5b611b4783611a82565b946020939093013593505050565b602080825282518282018190526000919060409081850190868401855b82811015611bc457815180518552868101516001600160a01b03908116888701528682015116868601526060808201519086015260809081015115159085015260a09093019290850190600101611b72565b5091979650505050505050565b600080600060608486031215611be657600080fd5b611bef84611a82565b9250611bfd60208501611a82565b9150604084013590509250925092565b600060208284031215611c1f57600080fd5b610c2082611a82565b60008060408385031215611c3b57600080fd5b823567ffffffffffffffff811115611c5257600080fd5b611c5e85828601611a62565b95602094909401359450505050565b60008060408385031215611c8057600080fd5b611c8983611a82565b915060208301358015158114611c9e57600080fd5b809150509250929050565b60008060008060808587031215611cbf57600080fd5b611cc885611a82565b9350611cd660208601611a82565b925060408501359150606085013567ffffffffffffffff811115611cf957600080fd5b8501601f81018713611d0a57600080fd5b611d19878235602084016119ec565b91505092959194509250565b60008060408385031215611d3857600080fd5b611d4183611a82565b9150611d4f60208401611a82565b90509250929050565b600181811c90821680611d6c57607f821691505b602082108103611d8c57634e487b7160e01b600052602260045260246000fd5b50919050565b634e487b7160e01b600052601160045260246000fd5b600082821015611dba57611dba611d92565b500390565b60008219821115611dd257611dd2611d92565b500190565b634e487b7160e01b600052603260045260246000fd5b600060018201611dff57611dff611d92565b5060010190565b6020808252602e908201527f4552433732313a2063616c6c6572206973206e6f7420746f6b656e206f776e6560408201526d1c881b9bdc88185c1c1c9bdd995960921b606082015260800190565b60008351611e6681846020880161196b565b835190830190611e7a81836020880161196b565b01949350505050565b6020808252602b908201527f496e697469616c697a61626c653a20636f6e7472616374206973206e6f74206960408201526a6e697469616c697a696e6760a81b606082015260800190565b60208082526032908201527f4552433732313a207472616e7366657220746f206e6f6e20455243373231526560408201527131b2b4bb32b91034b6b83632b6b2b73a32b960711b606082015260800190565b6001600160a01b0385811682528416602082015260408101839052608060608201819052600090611f5390830184611997565b9695505050505050565b600060208284031215611f6f57600080fd5b8151610c2081611938565b634e487b7160e01b600052601260045260246000fd5b600082611f9f57611f9f611f7a565b500490565b600082611fb357611fb3611f7a565b50069056fea264697066735822122080a3aadb3cacdc16f2d819b78a077c9666d4845240736321a1466e973fc0190d64736f6c634300080e0033a2646970667358221220f9e4d8dd29361fe3c613501829a75e5c494c471e60be4096a8072184e022017964736f6c634300080e0033",
  "linkReferences": {},
  "deployedLinkReferences": {}
}